{
  "_format": "hh-sol-artifact-1",
  "contractName": "ContangoPositionNFT",
  "sourceName": "@contango/sol/contracts/ContangoPositionNFT.sol",
  "abi": [
    {
      "anonymous": false,
      "inputs": [
        {
          "indexed": true,
          "internalType": "address",
          "name": "owner",
          "type": "address"
        },
        {
          "indexed": true,
          "internalType": "address",
          "name": "approved",
          "type": "address"
        },
        {
          "indexed": true,
          "internalType": "uint256",
          "name": "tokenId",
          "type": "uint256"
        }
      ],
      "name": "Approval",
      "type": "event"
    },
    {
      "anonymous": false,
      "inputs": [
        {
          "indexed": true,
          "internalType": "address",
          "name": "owner",
          "type": "address"
        },
        {
          "indexed": true,
          "internalType": "address",
          "name": "operator",
          "type": "address"
        },
        {
          "indexed": false,
          "internalType": "bool",
          "name": "approved",
          "type": "bool"
        }
      ],
      "name": "ApprovalForAll",
      "type": "event"
    },
    {
      "anonymous": false,
      "inputs": [
        {
          "indexed": false,
          "internalType": "uint8",
          "name": "version",
          "type": "uint8"
        }
      ],
      "name": "Initialized",
      "type": "event"
    },
    {
      "anonymous": false,
      "inputs": [
        {
          "indexed": true,
          "internalType": "bytes32",
          "name": "role",
          "type": "bytes32"
        },
        {
          "indexed": true,
          "internalType": "bytes32",
          "name": "previousAdminRole",
          "type": "bytes32"
        },
        {
          "indexed": true,
          "internalType": "bytes32",
          "name": "newAdminRole",
          "type": "bytes32"
        }
      ],
      "name": "RoleAdminChanged",
      "type": "event"
    },
    {
      "anonymous": false,
      "inputs": [
        {
          "indexed": true,
          "internalType": "bytes32",
          "name": "role",
          "type": "bytes32"
        },
        {
          "indexed": true,
          "internalType": "address",
          "name": "account",
          "type": "address"
        },
        {
          "indexed": true,
          "internalType": "address",
          "name": "sender",
          "type": "address"
        }
      ],
      "name": "RoleGranted",
      "type": "event"
    },
    {
      "anonymous": false,
      "inputs": [
        {
          "indexed": true,
          "internalType": "bytes32",
          "name": "role",
          "type": "bytes32"
        },
        {
          "indexed": true,
          "internalType": "address",
          "name": "account",
          "type": "address"
        },
        {
          "indexed": true,
          "internalType": "address",
          "name": "sender",
          "type": "address"
        }
      ],
      "name": "RoleRevoked",
      "type": "event"
    },
    {
      "anonymous": false,
      "inputs": [
        {
          "indexed": true,
          "internalType": "address",
          "name": "from",
          "type": "address"
        },
        {
          "indexed": true,
          "internalType": "address",
          "name": "to",
          "type": "address"
        },
        {
          "indexed": true,
          "internalType": "uint256",
          "name": "tokenId",
          "type": "uint256"
        }
      ],
      "name": "Transfer",
      "type": "event"
    },
    {
      "inputs": [],
      "name": "DEFAULT_ADMIN_ROLE",
      "outputs": [
        {
          "internalType": "bytes32",
          "name": "",
          "type": "bytes32"
        }
      ],
      "stateMutability": "view",
      "type": "function"
    },
    {
      "inputs": [],
      "name": "MINTER",
      "outputs": [
        {
          "internalType": "bytes32",
          "name": "",
          "type": "bytes32"
        }
      ],
      "stateMutability": "view",
      "type": "function"
    },
    {
      "inputs": [
        {
          "internalType": "address",
          "name": "to",
          "type": "address"
        },
        {
          "internalType": "uint256",
          "name": "tokenId",
          "type": "uint256"
        }
      ],
      "name": "approve",
      "outputs": [],
      "stateMutability": "nonpayable",
      "type": "function"
    },
    {
      "inputs": [
        {
          "internalType": "address",
          "name": "owner",
          "type": "address"
        }
      ],
      "name": "balanceOf",
      "outputs": [
        {
          "internalType": "uint256",
          "name": "",
          "type": "uint256"
        }
      ],
      "stateMutability": "view",
      "type": "function"
    },
    {
      "inputs": [
        {
          "internalType": "uint256",
          "name": "positionId",
          "type": "uint256"
        }
      ],
      "name": "burn",
      "outputs": [],
      "stateMutability": "nonpayable",
      "type": "function"
    },
    {
      "inputs": [
        {
          "internalType": "uint256",
          "name": "tokenId",
          "type": "uint256"
        }
      ],
      "name": "getApproved",
      "outputs": [
        {
          "internalType": "address",
          "name": "",
          "type": "address"
        }
      ],
      "stateMutability": "view",
      "type": "function"
    },
    {
      "inputs": [
        {
          "internalType": "bytes32",
          "name": "role",
          "type": "bytes32"
        }
      ],
      "name": "getRoleAdmin",
      "outputs": [
        {
          "internalType": "bytes32",
          "name": "",
          "type": "bytes32"
        }
      ],
      "stateMutability": "view",
      "type": "function"
    },
    {
      "inputs": [
        {
          "internalType": "bytes32",
          "name": "role",
          "type": "bytes32"
        },
        {
          "internalType": "address",
          "name": "account",
          "type": "address"
        }
      ],
      "name": "grantRole",
      "outputs": [],
      "stateMutability": "nonpayable",
      "type": "function"
    },
    {
      "inputs": [
        {
          "internalType": "bytes32",
          "name": "role",
          "type": "bytes32"
        },
        {
          "internalType": "address",
          "name": "account",
          "type": "address"
        }
      ],
      "name": "hasRole",
      "outputs": [
        {
          "internalType": "bool",
          "name": "",
          "type": "bool"
        }
      ],
      "stateMutability": "view",
      "type": "function"
    },
    {
      "inputs": [],
      "name": "initialize",
      "outputs": [],
      "stateMutability": "nonpayable",
      "type": "function"
    },
    {
      "inputs": [
        {
          "internalType": "address",
          "name": "owner",
          "type": "address"
        },
        {
          "internalType": "address",
          "name": "operator",
          "type": "address"
        }
      ],
      "name": "isApprovedForAll",
      "outputs": [
        {
          "internalType": "bool",
          "name": "",
          "type": "bool"
        }
      ],
      "stateMutability": "view",
      "type": "function"
    },
    {
      "inputs": [
        {
          "internalType": "address",
          "name": "to",
          "type": "address"
        }
      ],
      "name": "mint",
      "outputs": [
        {
          "internalType": "uint256",
          "name": "positionId",
          "type": "uint256"
        }
      ],
      "stateMutability": "nonpayable",
      "type": "function"
    },
    {
      "inputs": [],
      "name": "name",
      "outputs": [
        {
          "internalType": "string",
          "name": "",
          "type": "string"
        }
      ],
      "stateMutability": "view",
      "type": "function"
    },
    {
      "inputs": [],
      "name": "nextPositionId",
      "outputs": [
        {
          "internalType": "uint256",
          "name": "",
          "type": "uint256"
        }
      ],
      "stateMutability": "view",
      "type": "function"
    },
    {
      "inputs": [
        {
          "internalType": "uint256",
          "name": "tokenId",
          "type": "uint256"
        }
      ],
      "name": "ownerOf",
      "outputs": [
        {
          "internalType": "address",
          "name": "",
          "type": "address"
        }
      ],
      "stateMutability": "view",
      "type": "function"
    },
    {
      "inputs": [
        {
          "internalType": "address",
          "name": "owner",
          "type": "address"
        },
        {
          "internalType": "uint256",
          "name": "from",
          "type": "uint256"
        },
        {
          "internalType": "uint256",
          "name": "to",
          "type": "uint256"
        }
      ],
      "name": "positions",
      "outputs": [
        {
          "internalType": "uint256[]",
          "name": "tokens",
          "type": "uint256[]"
        }
      ],
      "stateMutability": "view",
      "type": "function"
    },
    {
      "inputs": [
        {
          "internalType": "bytes32",
          "name": "role",
          "type": "bytes32"
        },
        {
          "internalType": "address",
          "name": "account",
          "type": "address"
        }
      ],
      "name": "renounceRole",
      "outputs": [],
      "stateMutability": "nonpayable",
      "type": "function"
    },
    {
      "inputs": [
        {
          "internalType": "bytes32",
          "name": "role",
          "type": "bytes32"
        },
        {
          "internalType": "address",
          "name": "account",
          "type": "address"
        }
      ],
      "name": "revokeRole",
      "outputs": [],
      "stateMutability": "nonpayable",
      "type": "function"
    },
    {
      "inputs": [
        {
          "internalType": "address",
          "name": "from",
          "type": "address"
        },
        {
          "internalType": "address",
          "name": "to",
          "type": "address"
        },
        {
          "internalType": "uint256",
          "name": "tokenId",
          "type": "uint256"
        }
      ],
      "name": "safeTransferFrom",
      "outputs": [],
      "stateMutability": "nonpayable",
      "type": "function"
    },
    {
      "inputs": [
        {
          "internalType": "address",
          "name": "from",
          "type": "address"
        },
        {
          "internalType": "address",
          "name": "to",
          "type": "address"
        },
        {
          "internalType": "uint256",
          "name": "tokenId",
          "type": "uint256"
        },
        {
          "internalType": "bytes",
          "name": "_data",
          "type": "bytes"
        }
      ],
      "name": "safeTransferFrom",
      "outputs": [],
      "stateMutability": "nonpayable",
      "type": "function"
    },
    {
      "inputs": [
        {
          "internalType": "address",
          "name": "operator",
          "type": "address"
        },
        {
          "internalType": "bool",
          "name": "approved",
          "type": "bool"
        }
      ],
      "name": "setApprovalForAll",
      "outputs": [],
      "stateMutability": "nonpayable",
      "type": "function"
    },
    {
      "inputs": [
        {
          "internalType": "bytes4",
          "name": "interfaceId",
          "type": "bytes4"
        }
      ],
      "name": "supportsInterface",
      "outputs": [
        {
          "internalType": "bool",
          "name": "",
          "type": "bool"
        }
      ],
      "stateMutability": "view",
      "type": "function"
    },
    {
      "inputs": [],
      "name": "symbol",
      "outputs": [
        {
          "internalType": "string",
          "name": "",
          "type": "string"
        }
      ],
      "stateMutability": "view",
      "type": "function"
    },
    {
      "inputs": [
        {
          "internalType": "uint256",
          "name": "tokenId",
          "type": "uint256"
        }
      ],
      "name": "tokenURI",
      "outputs": [
        {
          "internalType": "string",
          "name": "",
          "type": "string"
        }
      ],
      "stateMutability": "view",
      "type": "function"
    },
    {
      "inputs": [
        {
          "internalType": "address",
          "name": "from",
          "type": "address"
        },
        {
          "internalType": "address",
          "name": "to",
          "type": "address"
        },
        {
          "internalType": "uint256",
          "name": "tokenId",
          "type": "uint256"
        }
      ],
      "name": "transferFrom",
      "outputs": [],
      "stateMutability": "nonpayable",
      "type": "function"
    }
  ],
  "bytecode": "0x608060405234801561001057600080fd5b50612419806100206000396000f3fe608060405234801561001057600080fd5b50600436106101a35760003560e01c806370a08231116100ee578063a217fddf11610097578063c87b56dd11610071578063c87b56dd1461038e578063d547741f146103a1578063e985e9c5146103b4578063fe6d8124146103f057600080fd5b8063a217fddf14610360578063a22cb46514610368578063b88d4fde1461037b57600080fd5b8063899346c7116100c8578063899346c71461031657806391d148541461031f57806395d89b411461035857600080fd5b806370a08231146102db578063774a1737146102ee5780638129fc1c1461030e57600080fd5b80632f2ff15d1161015057806342966c681161012a57806342966c68146102a25780636352211e146102b55780636a627842146102c857600080fd5b80632f2ff15d1461026957806336568abe1461027c57806342842e0e1461028f57600080fd5b8063095ea7b311610181578063095ea7b31461021057806323b872dd14610225578063248a9ca31461023857600080fd5b806301ffc9a7146101a857806306fdde03146101d0578063081812fc146101e5575b600080fd5b6101bb6101b63660046120c3565b610400565b60405190151581526020015b60405180910390f35b6101d8610420565b6040516101c79190612259565b6101f86101f3366004612087565b6104b2565b6040516001600160a01b0390911681526020016101c7565b61022361021e36600461202a565b61055d565b005b610223610233366004611ed6565b61068f565b61025b610246366004612087565b60009081526097602052604090206001015490565b6040519081526020016101c7565b6102236102773660046120a0565b610716565b61022361028a3660046120a0565b61073b565b61022361029d366004611ed6565b6107c7565b6102236102b0366004612087565b6107e2565b6101f86102c3366004612087565b6107fe565b61025b6102d6366004611e88565b610889565b61025b6102e9366004611e88565b6108c4565b6103016102fc366004612054565b61095e565b6040516101c79190612215565b610223610a56565b61025b60c95481565b6101bb61032d3660046120a0565b60009182526097602090815260408084206001600160a01b0393909316845291905290205460ff1690565b6101d8610b4f565b61025b600081565b610223610376366004611fee565b610b5e565b610223610389366004611f12565b610b69565b6101d861039c366004612087565b610bf7565b6102236103af3660046120a0565b610ced565b6101bb6103c2366004611ea3565b6001600160a01b039182166000908152606a6020908152604080832093909416825291909152205460ff1690565b61025b6526a4a72a22a960d11b81565b600061040b82610d12565b8061041a575061041a82610d4c565b92915050565b60606065805461042f90612311565b80601f016020809104026020016040519081016040528092919081815260200182805461045b90612311565b80156104a85780601f1061047d576101008083540402835291602001916104a8565b820191906000526020600020905b81548152906001019060200180831161048b57829003601f168201915b5050505050905090565b6000818152606760205260408120546001600160a01b03166105415760405162461bcd60e51b815260206004820152602c60248201527f4552433732313a20617070726f76656420717565727920666f72206e6f6e657860448201527f697374656e7420746f6b656e000000000000000000000000000000000000000060648201526084015b60405180910390fd5b506000908152606960205260409020546001600160a01b031690565b6000610568826107fe565b9050806001600160a01b0316836001600160a01b031614156105f25760405162461bcd60e51b815260206004820152602160248201527f4552433732313a20617070726f76616c20746f2063757272656e74206f776e6560448201527f72000000000000000000000000000000000000000000000000000000000000006064820152608401610538565b336001600160a01b038216148061060e575061060e81336103c2565b6106805760405162461bcd60e51b815260206004820152603860248201527f4552433732313a20617070726f76652063616c6c6572206973206e6f74206f7760448201527f6e6572206e6f7220617070726f76656420666f7220616c6c00000000000000006064820152608401610538565b61068a8383610de7565b505050565b6106993382610e62565b61070b5760405162461bcd60e51b815260206004820152603160248201527f4552433732313a207472616e736665722063616c6c6572206973206e6f74206f60448201527f776e6572206e6f7220617070726f7665640000000000000000000000000000006064820152608401610538565b61068a838383610f6a565b60008281526097602052604090206001015461073181611144565b61068a838361114e565b6001600160a01b03811633146107b95760405162461bcd60e51b815260206004820152602f60248201527f416363657373436f6e74726f6c3a2063616e206f6e6c792072656e6f756e636560448201527f20726f6c657320666f722073656c6600000000000000000000000000000000006064820152608401610538565b6107c382826111f0565b5050565b61068a83838360405180602001604052806000815250610b69565b6526a4a72a22a960d11b6107f581611144565b6107c382611273565b6000818152606760205260408120546001600160a01b03168061041a5760405162461bcd60e51b815260206004820152602960248201527f4552433732313a206f776e657220717565727920666f72206e6f6e657869737460448201527f656e7420746f6b656e00000000000000000000000000000000000000000000006064820152608401610538565b60006526a4a72a22a960d11b61089e81611144565b60c980549060006108ae83612346565b9190505591506108be838361131b565b50919050565b60006001600160a01b0382166109425760405162461bcd60e51b815260206004820152602a60248201527f4552433732313a2062616c616e636520717565727920666f7220746865207a6560448201527f726f2061646472657373000000000000000000000000000000000000000000006064820152608401610538565b506001600160a01b031660009081526068602052604090205490565b606060008061096c866108c4565b90508067ffffffffffffffff811115610987576109876123b7565b6040519080825280602002602001820160405280156109b0578160200160208202803683370190505b5092506109bf8460c954611335565b9350845b84811015610a4c576000818152606760205260409020546001600160a01b031615158015610a0a5750866001600160a01b03166109ff826107fe565b6001600160a01b0316145b15610a3a57808484610a1b81612346565b955081518110610a2d57610a2d6123a1565b6020026020010181815250505b80610a4481612346565b9150506109c3565b5050509392505050565b6000610a62600161134b565b90508015610a7a576000805461ff0019166101001790555b610a82611484565b610a8d6000336114f1565b610b016040518060400160405280601181526020017f436f6e74616e676f20506f736974696f6e0000000000000000000000000000008152506040518060400160405280600481526020017f43544750000000000000000000000000000000000000000000000000000000008152506114fb565b600160c9558015610b4c576000805461ff0019169055604051600181527f7f26b83ff96e1f2b6a682f133852f6798a09c465da95921460cefb38474024989060200160405180910390a15b50565b60606066805461042f90612311565b6107c3338383611570565b610b733383610e62565b610be55760405162461bcd60e51b815260206004820152603160248201527f4552433732313a207472616e736665722063616c6c6572206973206e6f74206f60448201527f776e6572206e6f7220617070726f7665640000000000000000000000000000006064820152608401610538565b610bf18484848461163f565b50505050565b6000818152606760205260409020546060906001600160a01b0316610c845760405162461bcd60e51b815260206004820152602f60248201527f4552433732314d657461646174613a2055524920717565727920666f72206e6f60448201527f6e6578697374656e7420746f6b656e00000000000000000000000000000000006064820152608401610538565b6000610c9b60408051602081019091526000815290565b90506000815111610cbb5760405180602001604052806000815250610ce6565b80610cc5846116c8565b604051602001610cd6929190612129565b6040516020818303038152906040525b9392505050565b600082815260976020526040902060010154610d0881611144565b61068a83836111f0565b60006001600160e01b031982167f7965db0b00000000000000000000000000000000000000000000000000000000148061041a575061041a825b60006001600160e01b031982167f80ac58cd000000000000000000000000000000000000000000000000000000001480610daf57506001600160e01b031982167f5b5e139f00000000000000000000000000000000000000000000000000000000145b8061041a57507f01ffc9a7000000000000000000000000000000000000000000000000000000006001600160e01b031983161461041a565b6000818152606960205260409020805473ffffffffffffffffffffffffffffffffffffffff19166001600160a01b0384169081179091558190610e29826107fe565b6001600160a01b03167f8c5be1e5ebec7d5bd14f71427d1e84f3dd0314c0f7b2291e5b200ac8c7c3b92560405160405180910390a45050565b6000818152606760205260408120546001600160a01b0316610eec5760405162461bcd60e51b815260206004820152602c60248201527f4552433732313a206f70657261746f7220717565727920666f72206e6f6e657860448201527f697374656e7420746f6b656e00000000000000000000000000000000000000006064820152608401610538565b6000610ef7836107fe565b9050806001600160a01b0316846001600160a01b03161480610f3e57506001600160a01b038082166000908152606a602090815260408083209388168352929052205460ff165b80610f625750836001600160a01b0316610f57846104b2565b6001600160a01b0316145b949350505050565b826001600160a01b0316610f7d826107fe565b6001600160a01b031614610ff95760405162461bcd60e51b815260206004820152602560248201527f4552433732313a207472616e736665722066726f6d20696e636f72726563742060448201527f6f776e65720000000000000000000000000000000000000000000000000000006064820152608401610538565b6001600160a01b0382166110745760405162461bcd60e51b8152602060048201526024808201527f4552433732313a207472616e7366657220746f20746865207a65726f2061646460448201527f72657373000000000000000000000000000000000000000000000000000000006064820152608401610538565b61107f600082610de7565b6001600160a01b03831660009081526068602052604081208054600192906110a89084906122b7565b90915550506001600160a01b03821660009081526068602052604081208054600192906110d690849061226c565b9091555050600081815260676020526040808220805473ffffffffffffffffffffffffffffffffffffffff19166001600160a01b0386811691821790925591518493918716917fddf252ad1be2c89b69c2b068fc378daa952ba7f163c4a11628f55a4df523b3ef91a4505050565b610b4c81336117c6565b60008281526097602090815260408083206001600160a01b038516845290915290205460ff166107c35760008281526097602090815260408083206001600160a01b03851684529091529020805460ff191660011790556111ac3390565b6001600160a01b0316816001600160a01b0316837f2f8788117e7eff1d82e926ec794901d17c78024a50270940304540a733656f0d60405160405180910390a45050565b60008281526097602090815260408083206001600160a01b038516845290915290205460ff16156107c35760008281526097602090815260408083206001600160a01b0385168085529252808320805460ff1916905551339285917ff6391f5c32d9c69d2a47ea670b442974b53935d1edc7fd64eb21e047a839171b9190a45050565b600061127e826107fe565b905061128b600083610de7565b6001600160a01b03811660009081526068602052604081208054600192906112b49084906122b7565b9091555050600082815260676020526040808220805473ffffffffffffffffffffffffffffffffffffffff19169055518391906001600160a01b038416907fddf252ad1be2c89b69c2b068fc378daa952ba7f163c4a11628f55a4df523b3ef908390a45050565b6107c3828260405180602001604052806000815250611846565b60008183106113445781610ce6565b5090919050565b60008054610100900460ff16156113e8578160ff16600114801561136e5750303b155b6113e05760405162461bcd60e51b815260206004820152602e60248201527f496e697469616c697a61626c653a20636f6e747261637420697320616c72656160448201527f647920696e697469616c697a65640000000000000000000000000000000000006064820152608401610538565b506000919050565b60005460ff8084169116106114655760405162461bcd60e51b815260206004820152602e60248201527f496e697469616c697a61626c653a20636f6e747261637420697320616c72656160448201527f647920696e697469616c697a65640000000000000000000000000000000000006064820152608401610538565b506000805460ff191660ff92909216919091179055600190565b919050565b600054610100900460ff166114ef5760405162461bcd60e51b815260206004820152602b60248201527f496e697469616c697a61626c653a20636f6e7472616374206973206e6f74206960448201526a6e697469616c697a696e6760a81b6064820152608401610538565b565b6107c3828261114e565b600054610100900460ff166115665760405162461bcd60e51b815260206004820152602b60248201527f496e697469616c697a61626c653a20636f6e7472616374206973206e6f74206960448201526a6e697469616c697a696e6760a81b6064820152608401610538565b6107c382826118cf565b816001600160a01b0316836001600160a01b031614156115d25760405162461bcd60e51b815260206004820152601960248201527f4552433732313a20617070726f766520746f2063616c6c6572000000000000006044820152606401610538565b6001600160a01b038381166000818152606a6020908152604080832094871680845294825291829020805460ff191686151590811790915591519182527f17307eab39ab6107e8899845ad3d59bd9653f200f220920489ca2b5937696c31910160405180910390a3505050565b61164a848484610f6a565b61165684848484611961565b610bf15760405162461bcd60e51b815260206004820152603260248201527f4552433732313a207472616e7366657220746f206e6f6e20455243373231526560448201527f63656976657220696d706c656d656e74657200000000000000000000000000006064820152608401610538565b6060816116ec5750506040805180820190915260018152600360fc1b602082015290565b8160005b8115611716578061170081612346565b915061170f9050600a83612284565b91506116f0565b60008167ffffffffffffffff811115611731576117316123b7565b6040519080825280601f01601f19166020018201604052801561175b576020820181803683370190505b5090505b8415610f62576117706001836122b7565b915061177d600a86612361565b61178890603061226c565b60f81b81838151811061179d5761179d6123a1565b60200101906001600160f81b031916908160001a9053506117bf600a86612284565b945061175f565b60008281526097602090815260408083206001600160a01b038516845290915290205460ff166107c357611804816001600160a01b03166014611ac4565b61180f836020611ac4565b604051602001611820929190612158565b60408051601f198184030181529082905262461bcd60e51b825261053891600401612259565b6118508383611c89565b61185d6000848484611961565b61068a5760405162461bcd60e51b815260206004820152603260248201527f4552433732313a207472616e7366657220746f206e6f6e20455243373231526560448201527f63656976657220696d706c656d656e74657200000000000000000000000000006064820152608401610538565b600054610100900460ff1661193a5760405162461bcd60e51b815260206004820152602b60248201527f496e697469616c697a61626c653a20636f6e7472616374206973206e6f74206960448201526a6e697469616c697a696e6760a81b6064820152608401610538565b815161194d906065906020850190611dd8565b50805161068a906066906020840190611dd8565b60006001600160a01b0384163b15611ab957604051630a85bd0160e11b81526001600160a01b0385169063150b7a02906119a59033908990889088906004016121d9565b602060405180830381600087803b1580156119bf57600080fd5b505af19250505080156119ef575060408051601f3d908101601f191682019092526119ec918101906120e0565b60015b611a9f573d808015611a1d576040519150601f19603f3d011682016040523d82523d6000602084013e611a22565b606091505b508051611a975760405162461bcd60e51b815260206004820152603260248201527f4552433732313a207472616e7366657220746f206e6f6e20455243373231526560448201527f63656976657220696d706c656d656e74657200000000000000000000000000006064820152608401610538565b805181602001fd5b6001600160e01b031916630a85bd0160e11b149050610f62565b506001949350505050565b60606000611ad3836002612298565b611ade90600261226c565b67ffffffffffffffff811115611af657611af66123b7565b6040519080825280601f01601f191660200182016040528015611b20576020820181803683370190505b509050600360fc1b81600081518110611b3b57611b3b6123a1565b60200101906001600160f81b031916908160001a9053507f780000000000000000000000000000000000000000000000000000000000000081600181518110611b8657611b866123a1565b60200101906001600160f81b031916908160001a9053506000611baa846002612298565b611bb590600161226c565b90505b6001811115611c3a577f303132333435363738396162636465660000000000000000000000000000000085600f1660108110611bf657611bf66123a1565b1a60f81b828281518110611c0c57611c0c6123a1565b60200101906001600160f81b031916908160001a90535060049490941c93611c33816122fa565b9050611bb8565b508315610ce65760405162461bcd60e51b815260206004820181905260248201527f537472696e67733a20686578206c656e67746820696e73756666696369656e746044820152606401610538565b6001600160a01b038216611cdf5760405162461bcd60e51b815260206004820181905260248201527f4552433732313a206d696e7420746f20746865207a65726f20616464726573736044820152606401610538565b6000818152606760205260409020546001600160a01b031615611d445760405162461bcd60e51b815260206004820152601c60248201527f4552433732313a20746f6b656e20616c7265616479206d696e746564000000006044820152606401610538565b6001600160a01b0382166000908152606860205260408120805460019290611d6d90849061226c565b9091555050600081815260676020526040808220805473ffffffffffffffffffffffffffffffffffffffff19166001600160a01b03861690811790915590518392907fddf252ad1be2c89b69c2b068fc378daa952ba7f163c4a11628f55a4df523b3ef908290a45050565b828054611de490612311565b90600052602060002090601f016020900481019282611e065760008555611e4c565b82601f10611e1f57805160ff1916838001178555611e4c565b82800160010185558215611e4c579182015b82811115611e4c578251825591602001919060010190611e31565b50611e58929150611e5c565b5090565b5b80821115611e585760008155600101611e5d565b80356001600160a01b038116811461147f57600080fd5b600060208284031215611e9a57600080fd5b610ce682611e71565b60008060408385031215611eb657600080fd5b611ebf83611e71565b9150611ecd60208401611e71565b90509250929050565b600080600060608486031215611eeb57600080fd5b611ef484611e71565b9250611f0260208501611e71565b9150604084013590509250925092565b60008060008060808587031215611f2857600080fd5b611f3185611e71565b9350611f3f60208601611e71565b925060408501359150606085013567ffffffffffffffff80821115611f6357600080fd5b818701915087601f830112611f7757600080fd5b813581811115611f8957611f896123b7565b604051601f8201601f19908116603f01168101908382118183101715611fb157611fb16123b7565b816040528281528a6020848701011115611fca57600080fd5b82602086016020830137600060208483010152809550505050505092959194509250565b6000806040838503121561200157600080fd5b61200a83611e71565b91506020830135801515811461201f57600080fd5b809150509250929050565b6000806040838503121561203d57600080fd5b61204683611e71565b946020939093013593505050565b60008060006060848603121561206957600080fd5b61207284611e71565b95602085013595506040909401359392505050565b60006020828403121561209957600080fd5b5035919050565b600080604083850312156120b357600080fd5b82359150611ecd60208401611e71565b6000602082840312156120d557600080fd5b8135610ce6816123cd565b6000602082840312156120f257600080fd5b8151610ce6816123cd565b600081518084526121158160208601602086016122ce565b601f01601f19169290920160200192915050565b6000835161213b8184602088016122ce565b83519083019061214f8183602088016122ce565b01949350505050565b7f416363657373436f6e74726f6c3a206163636f756e74200000000000000000008152600083516121908160178501602088016122ce565b7f206973206d697373696e6720726f6c652000000000000000000000000000000060179184019182015283516121cd8160288401602088016122ce565b01602801949350505050565b60006001600160a01b0380871683528086166020840152508360408301526080606083015261220b60808301846120fd565b9695505050505050565b6020808252825182820181905260009190848201906040850190845b8181101561224d57835183529284019291840191600101612231565b50909695505050505050565b602081526000610ce660208301846120fd565b6000821982111561227f5761227f612375565b500190565b6000826122935761229361238b565b500490565b60008160001904831182151516156122b2576122b2612375565b500290565b6000828210156122c9576122c9612375565b500390565b60005b838110156122e95781810151838201526020016122d1565b83811115610bf15750506000910152565b60008161230957612309612375565b506000190190565b600181811c9082168061232557607f821691505b602082108114156108be57634e487b7160e01b600052602260045260246000fd5b600060001982141561235a5761235a612375565b5060010190565b6000826123705761237061238b565b500690565b634e487b7160e01b600052601160045260246000fd5b634e487b7160e01b600052601260045260246000fd5b634e487b7160e01b600052603260045260246000fd5b634e487b7160e01b600052604160045260246000fd5b6001600160e01b031981168114610b4c57600080fdfea26469706673582212201c514d5a9f132f145f6e0c7548fdbcad4e089a9d452330a826c8b44bac8ea08e64736f6c63430008060033",
  "linkReferences": {},
  "deployedLinkReferences": {}
}